{
  "contractName": "StarNotary",
  "abi": [
    {
      "inputs": [
        {
          "internalType": "string",
          "name": "name_",
          "type": "string"
        },
        {
          "internalType": "string",
          "name": "symbol_",
          "type": "string"
        }
      ],
      "stateMutability": "nonpayable",
      "type": "constructor"
    },
    {
      "anonymous": false,
      "inputs": [
        {
          "indexed": true,
          "internalType": "address",
          "name": "owner",
          "type": "address"
        },
        {
          "indexed": true,
          "internalType": "address",
          "name": "approved",
          "type": "address"
        },
        {
          "indexed": true,
          "internalType": "uint256",
          "name": "tokenId",
          "type": "uint256"
        }
      ],
      "name": "Approval",
      "type": "event"
    },
    {
      "anonymous": false,
      "inputs": [
        {
          "indexed": true,
          "internalType": "address",
          "name": "owner",
          "type": "address"
        },
        {
          "indexed": true,
          "internalType": "address",
          "name": "operator",
          "type": "address"
        },
        {
          "indexed": false,
          "internalType": "bool",
          "name": "approved",
          "type": "bool"
        }
      ],
      "name": "ApprovalForAll",
      "type": "event"
    },
    {
      "anonymous": false,
      "inputs": [
        {
          "indexed": true,
          "internalType": "address",
          "name": "from",
          "type": "address"
        },
        {
          "indexed": true,
          "internalType": "address",
          "name": "to",
          "type": "address"
        },
        {
          "indexed": true,
          "internalType": "uint256",
          "name": "tokenId",
          "type": "uint256"
        }
      ],
      "name": "Transfer",
      "type": "event"
    },
    {
      "inputs": [
        {
          "internalType": "address",
          "name": "to",
          "type": "address"
        },
        {
          "internalType": "uint256",
          "name": "tokenId",
          "type": "uint256"
        }
      ],
      "name": "approve",
      "outputs": [],
      "stateMutability": "nonpayable",
      "type": "function"
    },
    {
      "inputs": [
        {
          "internalType": "address",
          "name": "owner",
          "type": "address"
        }
      ],
      "name": "balanceOf",
      "outputs": [
        {
          "internalType": "uint256",
          "name": "",
          "type": "uint256"
        }
      ],
      "stateMutability": "view",
      "type": "function",
      "constant": true
    },
    {
      "inputs": [
        {
          "internalType": "uint256",
          "name": "tokenId",
          "type": "uint256"
        }
      ],
      "name": "getApproved",
      "outputs": [
        {
          "internalType": "address",
          "name": "",
          "type": "address"
        }
      ],
      "stateMutability": "view",
      "type": "function",
      "constant": true
    },
    {
      "inputs": [
        {
          "internalType": "address",
          "name": "owner",
          "type": "address"
        },
        {
          "internalType": "address",
          "name": "operator",
          "type": "address"
        }
      ],
      "name": "isApprovedForAll",
      "outputs": [
        {
          "internalType": "bool",
          "name": "",
          "type": "bool"
        }
      ],
      "stateMutability": "view",
      "type": "function",
      "constant": true
    },
    {
      "inputs": [],
      "name": "name",
      "outputs": [
        {
          "internalType": "string",
          "name": "",
          "type": "string"
        }
      ],
      "stateMutability": "view",
      "type": "function",
      "constant": true
    },
    {
      "inputs": [
        {
          "internalType": "uint256",
          "name": "tokenId",
          "type": "uint256"
        }
      ],
      "name": "ownerOf",
      "outputs": [
        {
          "internalType": "address",
          "name": "",
          "type": "address"
        }
      ],
      "stateMutability": "view",
      "type": "function",
      "constant": true
    },
    {
      "inputs": [
        {
          "internalType": "address",
          "name": "from",
          "type": "address"
        },
        {
          "internalType": "address",
          "name": "to",
          "type": "address"
        },
        {
          "internalType": "uint256",
          "name": "tokenId",
          "type": "uint256"
        }
      ],
      "name": "safeTransferFrom",
      "outputs": [],
      "stateMutability": "nonpayable",
      "type": "function"
    },
    {
      "inputs": [
        {
          "internalType": "address",
          "name": "from",
          "type": "address"
        },
        {
          "internalType": "address",
          "name": "to",
          "type": "address"
        },
        {
          "internalType": "uint256",
          "name": "tokenId",
          "type": "uint256"
        },
        {
          "internalType": "bytes",
          "name": "_data",
          "type": "bytes"
        }
      ],
      "name": "safeTransferFrom",
      "outputs": [],
      "stateMutability": "nonpayable",
      "type": "function"
    },
    {
      "inputs": [
        {
          "internalType": "address",
          "name": "operator",
          "type": "address"
        },
        {
          "internalType": "bool",
          "name": "approved",
          "type": "bool"
        }
      ],
      "name": "setApprovalForAll",
      "outputs": [],
      "stateMutability": "nonpayable",
      "type": "function"
    },
    {
      "inputs": [
        {
          "internalType": "uint256",
          "name": "",
          "type": "uint256"
        }
      ],
      "name": "starsForSale",
      "outputs": [
        {
          "internalType": "uint256",
          "name": "",
          "type": "uint256"
        }
      ],
      "stateMutability": "view",
      "type": "function",
      "constant": true
    },
    {
      "inputs": [
        {
          "internalType": "bytes4",
          "name": "interfaceId",
          "type": "bytes4"
        }
      ],
      "name": "supportsInterface",
      "outputs": [
        {
          "internalType": "bool",
          "name": "",
          "type": "bool"
        }
      ],
      "stateMutability": "view",
      "type": "function",
      "constant": true
    },
    {
      "inputs": [],
      "name": "symbol",
      "outputs": [
        {
          "internalType": "string",
          "name": "",
          "type": "string"
        }
      ],
      "stateMutability": "view",
      "type": "function",
      "constant": true
    },
    {
      "inputs": [
        {
          "internalType": "uint256",
          "name": "",
          "type": "uint256"
        }
      ],
      "name": "tokenIdToStarInfo",
      "outputs": [
        {
          "internalType": "string",
          "name": "name",
          "type": "string"
        }
      ],
      "stateMutability": "view",
      "type": "function",
      "constant": true
    },
    {
      "inputs": [
        {
          "internalType": "uint256",
          "name": "tokenId",
          "type": "uint256"
        }
      ],
      "name": "tokenURI",
      "outputs": [
        {
          "internalType": "string",
          "name": "",
          "type": "string"
        }
      ],
      "stateMutability": "view",
      "type": "function",
      "constant": true
    },
    {
      "inputs": [
        {
          "internalType": "address",
          "name": "from",
          "type": "address"
        },
        {
          "internalType": "address",
          "name": "to",
          "type": "address"
        },
        {
          "internalType": "uint256",
          "name": "tokenId",
          "type": "uint256"
        }
      ],
      "name": "transferFrom",
      "outputs": [],
      "stateMutability": "nonpayable",
      "type": "function"
    },
    {
      "inputs": [
        {
          "internalType": "string",
          "name": "_name",
          "type": "string"
        },
        {
          "internalType": "uint256",
          "name": "_tokenId",
          "type": "uint256"
        }
      ],
      "name": "createStar",
      "outputs": [],
      "stateMutability": "nonpayable",
      "type": "function"
    },
    {
      "inputs": [
        {
          "internalType": "uint256",
          "name": "_tokenId",
          "type": "uint256"
        },
        {
          "internalType": "uint256",
          "name": "_price",
          "type": "uint256"
        }
      ],
      "name": "putStarUpForSale",
      "outputs": [],
      "stateMutability": "nonpayable",
      "type": "function"
    },
    {
      "inputs": [
        {
          "internalType": "uint256",
          "name": "_tokenId",
          "type": "uint256"
        }
      ],
      "name": "buyStar",
      "outputs": [],
      "stateMutability": "payable",
      "type": "function",
      "payable": true
    },
    {
      "inputs": [
        {
          "internalType": "uint256",
          "name": "_tokenId",
          "type": "uint256"
        }
      ],
      "name": "lookUptokenIdToStarInfo",
      "outputs": [
        {
          "internalType": "string",
          "name": "",
          "type": "string"
        }
      ],
      "stateMutability": "view",
      "type": "function",
      "constant": true
    },
    {
      "inputs": [
        {
          "internalType": "uint256",
          "name": "_tokenId1",
          "type": "uint256"
        },
        {
          "internalType": "uint256",
          "name": "_tokenId2",
          "type": "uint256"
        }
      ],
      "name": "exchangeStars",
      "outputs": [],
      "stateMutability": "nonpayable",
      "type": "function"
    },
    {
      "inputs": [
        {
          "internalType": "address",
          "name": "_to1",
          "type": "address"
        },
        {
          "internalType": "uint256",
          "name": "_tokenId",
          "type": "uint256"
        }
      ],
      "name": "transferStar",
      "outputs": [],
      "stateMutability": "nonpayable",
      "type": "function"
    }
  ],
  "bytecode": "0x60806040523480156200001157600080fd5b50604051620037b9380380620037b983398181016040528101906200003791906200032c565b6040518060400160405280600981526020017f5374617220436c756200000000000000000000000000000000000000000000008152506040518060400160405280600381526020017f53544100000000000000000000000000000000000000000000000000000000008152508160009080519060200190620000bb929190620000df565b508060019080519060200190620000d4929190620000df565b505050505062000416565b828054620000ed90620003e0565b90600052602060002090601f0160209004810192826200011157600085556200015d565b82601f106200012c57805160ff19168380011785556200015d565b828001600101855582156200015d579182015b828111156200015c5782518255916020019190600101906200013f565b5b5090506200016c919062000170565b5090565b5b808211156200018b57600081600090555060010162000171565b5090565b6000604051905090565b600080fd5b600080fd5b600080fd5b600080fd5b6000601f19601f8301169050919050565b7f4e487b7100000000000000000000000000000000000000000000000000000000600052604160045260246000fd5b620001f882620001ad565b810181811067ffffffffffffffff821117156200021a5762000219620001be565b5b80604052505050565b60006200022f6200018f565b90506200023d8282620001ed565b919050565b600067ffffffffffffffff82111562000260576200025f620001be565b5b6200026b82620001ad565b9050602081019050919050565b60005b83811015620002985780820151818401526020810190506200027b565b83811115620002a8576000848401525b50505050565b6000620002c5620002bf8462000242565b62000223565b905082815260208101848484011115620002e457620002e3620001a8565b5b620002f184828562000278565b509392505050565b600082601f830112620003115762000310620001a3565b5b815162000323848260208601620002ae565b91505092915050565b6000806040838503121562000346576200034562000199565b5b600083015167ffffffffffffffff8111156200036757620003666200019e565b5b6200037585828601620002f9565b925050602083015167ffffffffffffffff8111156200039957620003986200019e565b5b620003a785828601620002f9565b9150509250929050565b7f4e487b7100000000000000000000000000000000000000000000000000000000600052602260045260246000fd5b60006002820490506001821680620003f957607f821691505b6020821081141562000410576200040f620003b1565b5b50919050565b61339380620004266000396000f3fe60806040526004361061012a5760003560e01c806342842e0e116100ab578063a22cb4651161006f578063a22cb46514610405578063b88d4fde1461042e578063c87b56dd14610457578063d7830ccb14610494578063e7152a5c146104d1578063e985e9c5146104fa5761012a565b806342842e0e1461030e5780636352211e1461033757806370a082311461037457806395d89b41146103b15780639697c0a1146103dc5761012a565b806315e0afa5116100f257806315e0afa51461023a5780631967fd981461026357806323b872dd146102a05780632f1c34ef146102c9578063316a4361146102e55761012a565b806301ffc9a71461012f5780630564b1301461016c57806306fdde03146101a9578063081812fc146101d4578063095ea7b314610211575b600080fd5b34801561013b57600080fd5b5061015660048036038101906101519190611eb9565b610537565b6040516101639190611f01565b60405180910390f35b34801561017857600080fd5b50610193600480360381019061018e9190611f52565b610619565b6040516101a09190611f8e565b60405180910390f35b3480156101b557600080fd5b506101be610631565b6040516101cb9190612042565b60405180910390f35b3480156101e057600080fd5b506101fb60048036038101906101f69190611f52565b6106c3565b60405161020891906120a5565b60405180910390f35b34801561021d57600080fd5b50610238600480360381019061023391906120ec565b610748565b005b34801561024657600080fd5b50610261600480360381019061025c919061212c565b610860565b005b34801561026f57600080fd5b5061028a60048036038101906102859190611f52565b6109b9565b6040516102979190612042565b60405180910390f35b3480156102ac57600080fd5b506102c760048036038101906102c2919061216c565b610a5f565b005b6102e360048036038101906102de9190611f52565b610abf565b005b3480156102f157600080fd5b5061030c6004803603810190610307919061212c565b610c3c565b005b34801561031a57600080fd5b506103356004803603810190610330919061216c565b610cce565b005b34801561034357600080fd5b5061035e60048036038101906103599190611f52565b610cee565b60405161036b91906120a5565b60405180910390f35b34801561038057600080fd5b5061039b600480360381019061039691906121bf565b610da0565b6040516103a89190611f8e565b60405180910390f35b3480156103bd57600080fd5b506103c6610e58565b6040516103d39190612042565b60405180910390f35b3480156103e857600080fd5b5061040360048036038101906103fe9190612321565b610eea565b005b34801561041157600080fd5b5061042c600480360381019061042791906123a9565b610f40565b005b34801561043a57600080fd5b506104556004803603810190610450919061248a565b610f56565b005b34801561046357600080fd5b5061047e60048036038101906104799190611f52565b610fb8565b60405161048b9190612042565b60405180910390f35b3480156104a057600080fd5b506104bb60048036038101906104b69190611f52565b61105f565b6040516104c89190612042565b60405180910390f35b3480156104dd57600080fd5b506104f860048036038101906104f391906120ec565b611107565b005b34801561050657600080fd5b50610521600480360381019061051c919061250d565b61118c565b60405161052e9190611f01565b60405180910390f35b60007f80ac58cd000000000000000000000000000000000000000000000000000000007bffffffffffffffffffffffffffffffffffffffffffffffffffffffff1916827bffffffffffffffffffffffffffffffffffffffffffffffffffffffff1916148061060257507f5b5e139f000000000000000000000000000000000000000000000000000000007bffffffffffffffffffffffffffffffffffffffffffffffffffffffff1916827bffffffffffffffffffffffffffffffffffffffffffffffffffffffff1916145b80610612575061061182611220565b5b9050919050565b60076020528060005260406000206000915090505481565b6060600080546106409061257c565b80601f016020809104026020016040519081016040528092919081815260200182805461066c9061257c565b80156106b95780601f1061068e576101008083540402835291602001916106b9565b820191906000526020600020905b81548152906001019060200180831161069c57829003601f168201915b5050505050905090565b60006106ce8261128a565b61070d576040517f08c379a000000000000000000000000000000000000000000000000000000000815260040161070490612620565b60405180910390fd5b6004600083815260200190815260200160002060009054906101000a900473ffffffffffffffffffffffffffffffffffffffff169050919050565b600061075382610cee565b90508073ffffffffffffffffffffffffffffffffffffffff168373ffffffffffffffffffffffffffffffffffffffff1614156107c4576040517f08c379a00000000000000000000000000000000000000000000000000000000081526004016107bb906126b2565b60405180910390fd5b8073ffffffffffffffffffffffffffffffffffffffff166107e36112f6565b73ffffffffffffffffffffffffffffffffffffffff16148061081257506108118161080c6112f6565b61118c565b5b610851576040517f08c379a000000000000000000000000000000000000000000000000000000000815260040161084890612744565b60405180910390fd5b61085b83836112fe565b505050565b3373ffffffffffffffffffffffffffffffffffffffff1661088083610cee565b73ffffffffffffffffffffffffffffffffffffffff1614806108d557503373ffffffffffffffffffffffffffffffffffffffff166108bd82610cee565b73ffffffffffffffffffffffffffffffffffffffff16145b610914576040517f08c379a000000000000000000000000000000000000000000000000000000000815260040161090b906127d6565b60405180910390fd5b600061091f83610cee565b9050600061092c83610cee565b90508073ffffffffffffffffffffffffffffffffffffffff168273ffffffffffffffffffffffffffffffffffffffff16141561099d576040517f08c379a000000000000000000000000000000000000000000000000000000000815260040161099490612868565b60405180910390fd5b6109a8828286610a5f565b6109b3818385610a5f565b50505050565b60066020528060005260406000206000915090508060000180546109dc9061257c565b80601f0160208091040260200160405190810160405280929190818152602001828054610a089061257c565b8015610a555780601f10610a2a57610100808354040283529160200191610a55565b820191906000526020600020905b815481529060010190602001808311610a3857829003601f168201915b5050505050905081565b610a70610a6a6112f6565b826113b7565b610aaf576040517f08c379a0000000000000000000000000000000000000000000000000000000008152600401610aa6906128fa565b60405180910390fd5b610aba838383611495565b505050565b6000600760008381526020019081526020016000205411610b15576040517f08c379a0000000000000000000000000000000000000000000000000000000008152600401610b0c90612966565b60405180910390fd5b6000600760008381526020019081526020016000205490506000610b3883610cee565b9050813411610b7c576040517f08c379a0000000000000000000000000000000000000000000000000000000008152600401610b73906129d2565b60405180910390fd5b610b87813385610a5f565b6000610b92826116f1565b90508073ffffffffffffffffffffffffffffffffffffffff166108fc849081150290604051600060405180830381858888f19350505050158015610bda573d6000803e3d6000fd5b5082341115610c36573373ffffffffffffffffffffffffffffffffffffffff166108fc8434610c099190612a21565b9081150290604051600060405180830381858888f19350505050158015610c34573d6000803e3d6000fd5b505b50505050565b3373ffffffffffffffffffffffffffffffffffffffff16610c5c83610cee565b73ffffffffffffffffffffffffffffffffffffffff1614610cb2576040517f08c379a0000000000000000000000000000000000000000000000000000000008152600401610ca990612ac7565b60405180910390fd5b8060076000848152602001908152602001600020819055505050565b610ce983838360405180602001604052806000815250610f56565b505050565b6000806002600084815260200190815260200160002060009054906101000a900473ffffffffffffffffffffffffffffffffffffffff169050600073ffffffffffffffffffffffffffffffffffffffff168173ffffffffffffffffffffffffffffffffffffffff161415610d97576040517f08c379a0000000000000000000000000000000000000000000000000000000008152600401610d8e90612b59565b60405180910390fd5b80915050919050565b60008073ffffffffffffffffffffffffffffffffffffffff168273ffffffffffffffffffffffffffffffffffffffff161415610e11576040517f08c379a0000000000000000000000000000000000000000000000000000000008152600401610e0890612beb565b60405180910390fd5b600360008373ffffffffffffffffffffffffffffffffffffffff1673ffffffffffffffffffffffffffffffffffffffff168152602001908152602001600020549050919050565b606060018054610e679061257c565b80601f0160208091040260200160405190810160405280929190818152602001828054610e939061257c565b8015610ee05780601f10610eb557610100808354040283529160200191610ee0565b820191906000526020600020905b815481529060010190602001808311610ec357829003601f168201915b5050505050905090565b6000604051806020016040528084815250905080600660008481526020019081526020016000206000820151816000019080519060200190610f2d929190611daa565b50905050610f3b33836116fb565b505050565b610f52610f4b6112f6565b83836118c9565b5050565b610f67610f616112f6565b836113b7565b610fa6576040517f08c379a0000000000000000000000000000000000000000000000000000000008152600401610f9d906128fa565b60405180910390fd5b610fb284848484611a36565b50505050565b6060610fc38261128a565b611002576040517f08c379a0000000000000000000000000000000000000000000000000000000008152600401610ff990612c7d565b60405180910390fd5b600061100c611a92565b9050600081511161102c5760405180602001604052806000815250611057565b8061103684611aa9565b604051602001611047929190612cd9565b6040516020818303038152906040525b915050919050565b60606006600083815260200190815260200160002060000180546110829061257c565b80601f01602080910402602001604051908101604052809291908181526020018280546110ae9061257c565b80156110fb5780601f106110d0576101008083540402835291602001916110fb565b820191906000526020600020905b8154815290600101906020018083116110de57829003601f168201915b50505050509050919050565b3373ffffffffffffffffffffffffffffffffffffffff1661112782610cee565b73ffffffffffffffffffffffffffffffffffffffff161461117d576040517f08c379a000000000000000000000000000000000000000000000000000000000815260040161117490612d6f565b60405180910390fd5b611188338383610a5f565b5050565b6000600560008473ffffffffffffffffffffffffffffffffffffffff1673ffffffffffffffffffffffffffffffffffffffff16815260200190815260200160002060008373ffffffffffffffffffffffffffffffffffffffff1673ffffffffffffffffffffffffffffffffffffffff16815260200190815260200160002060009054906101000a900460ff16905092915050565b60007f01ffc9a7000000000000000000000000000000000000000000000000000000007bffffffffffffffffffffffffffffffffffffffffffffffffffffffff1916827bffffffffffffffffffffffffffffffffffffffffffffffffffffffff1916149050919050565b60008073ffffffffffffffffffffffffffffffffffffffff166002600084815260200190815260200160002060009054906101000a900473ffffffffffffffffffffffffffffffffffffffff1673ffffffffffffffffffffffffffffffffffffffff1614159050919050565b600033905090565b816004600083815260200190815260200160002060006101000a81548173ffffffffffffffffffffffffffffffffffffffff021916908373ffffffffffffffffffffffffffffffffffffffff160217905550808273ffffffffffffffffffffffffffffffffffffffff1661137183610cee565b73ffffffffffffffffffffffffffffffffffffffff167f8c5be1e5ebec7d5bd14f71427d1e84f3dd0314c0f7b2291e5b200ac8c7c3b92560405160405180910390a45050565b60006113c28261128a565b611401576040517f08c379a00000000000000000000000000000000000000000000000000000000081526004016113f890612e01565b60405180910390fd5b600061140c83610cee565b90508073ffffffffffffffffffffffffffffffffffffffff168473ffffffffffffffffffffffffffffffffffffffff16148061147b57508373ffffffffffffffffffffffffffffffffffffffff16611463846106c3565b73ffffffffffffffffffffffffffffffffffffffff16145b8061148c575061148b818561118c565b5b91505092915050565b8273ffffffffffffffffffffffffffffffffffffffff166114b582610cee565b73ffffffffffffffffffffffffffffffffffffffff161461150b576040517f08c379a000000000000000000000000000000000000000000000000000000000815260040161150290612e93565b60405180910390fd5b600073ffffffffffffffffffffffffffffffffffffffff168273ffffffffffffffffffffffffffffffffffffffff16141561157b576040517f08c379a000000000000000000000000000000000000000000000000000000000815260040161157290612f25565b60405180910390fd5b611586838383611c0a565b6115916000826112fe565b6001600360008573ffffffffffffffffffffffffffffffffffffffff1673ffffffffffffffffffffffffffffffffffffffff16815260200190815260200160002060008282546115e19190612a21565b925050819055506001600360008473ffffffffffffffffffffffffffffffffffffffff1673ffffffffffffffffffffffffffffffffffffffff16815260200190815260200160002060008282546116389190612f45565b92505081905550816002600083815260200190815260200160002060006101000a81548173ffffffffffffffffffffffffffffffffffffffff021916908373ffffffffffffffffffffffffffffffffffffffff160217905550808273ffffffffffffffffffffffffffffffffffffffff168473ffffffffffffffffffffffffffffffffffffffff167fddf252ad1be2c89b69c2b068fc378daa952ba7f163c4a11628f55a4df523b3ef60405160405180910390a4505050565b6000819050919050565b600073ffffffffffffffffffffffffffffffffffffffff168273ffffffffffffffffffffffffffffffffffffffff16141561176b576040517f08c379a000000000000000000000000000000000000000000000000000000000815260040161176290612fe7565b60405180910390fd5b6117748161128a565b156117b4576040517f08c379a00000000000000000000000000000000000000000000000000000000081526004016117ab90613053565b60405180910390fd5b6117c060008383611c0a565b6001600360008473ffffffffffffffffffffffffffffffffffffffff1673ffffffffffffffffffffffffffffffffffffffff16815260200190815260200160002060008282546118109190612f45565b92505081905550816002600083815260200190815260200160002060006101000a81548173ffffffffffffffffffffffffffffffffffffffff021916908373ffffffffffffffffffffffffffffffffffffffff160217905550808273ffffffffffffffffffffffffffffffffffffffff16600073ffffffffffffffffffffffffffffffffffffffff167fddf252ad1be2c89b69c2b068fc378daa952ba7f163c4a11628f55a4df523b3ef60405160405180910390a45050565b8173ffffffffffffffffffffffffffffffffffffffff168373ffffffffffffffffffffffffffffffffffffffff161415611938576040517f08c379a000000000000000000000000000000000000000000000000000000000815260040161192f906130bf565b60405180910390fd5b80600560008573ffffffffffffffffffffffffffffffffffffffff1673ffffffffffffffffffffffffffffffffffffffff16815260200190815260200160002060008473ffffffffffffffffffffffffffffffffffffffff1673ffffffffffffffffffffffffffffffffffffffff16815260200190815260200160002060006101000a81548160ff0219169083151502179055508173ffffffffffffffffffffffffffffffffffffffff168373ffffffffffffffffffffffffffffffffffffffff167f17307eab39ab6107e8899845ad3d59bd9653f200f220920489ca2b5937696c3183604051611a299190611f01565b60405180910390a3505050565b611a41848484611495565b611a4d84848484611c0f565b611a8c576040517f08c379a0000000000000000000000000000000000000000000000000000000008152600401611a8390613151565b60405180910390fd5b50505050565b606060405180602001604052806000815250905090565b60606000821415611af1576040518060400160405280600181526020017f30000000000000000000000000000000000000000000000000000000000000008152509050611c05565b600082905060005b60008214611b23578080611b0c90613171565b915050600a82611b1c91906131e9565b9150611af9565b60008167ffffffffffffffff811115611b3f57611b3e6121f6565b5b6040519080825280601f01601f191660200182016040528015611b715781602001600182028036833780820191505090505b5090505b60008514611bfe57600182611b8a9190612a21565b9150600a85611b99919061321a565b6030611ba59190612f45565b60f81b818381518110611bbb57611bba61324b565b5b60200101907effffffffffffffffffffffffffffffffffffffffffffffffffffffffffffff1916908160001a905350600a85611bf791906131e9565b9450611b75565b8093505050505b919050565b505050565b6000611c308473ffffffffffffffffffffffffffffffffffffffff16611d97565b15611d8a578373ffffffffffffffffffffffffffffffffffffffff1663150b7a02611c596112f6565b8786866040518563ffffffff1660e01b8152600401611c7b94939291906132cf565b6020604051808303816000875af1925050508015611cb757506040513d601f19601f82011682018060405250810190611cb49190613330565b60015b611d3a573d8060008114611ce7576040519150601f19603f3d011682016040523d82523d6000602084013e611cec565b606091505b50600081511415611d32576040517f08c379a0000000000000000000000000000000000000000000000000000000008152600401611d2990613151565b60405180910390fd5b805181602001fd5b63150b7a0260e01b7bffffffffffffffffffffffffffffffffffffffffffffffffffffffff1916817bffffffffffffffffffffffffffffffffffffffffffffffffffffffff191614915050611d8f565b600190505b949350505050565b600080823b905060008111915050919050565b828054611db69061257c565b90600052602060002090601f016020900481019282611dd85760008555611e1f565b82601f10611df157805160ff1916838001178555611e1f565b82800160010185558215611e1f579182015b82811115611e1e578251825591602001919060010190611e03565b5b509050611e2c9190611e30565b5090565b5b80821115611e49576000816000905550600101611e31565b5090565b6000604051905090565b600080fd5b600080fd5b60007fffffffff0000000000000000000000000000000000000000000000000000000082169050919050565b611e9681611e61565b8114611ea157600080fd5b50565b600081359050611eb381611e8d565b92915050565b600060208284031215611ecf57611ece611e57565b5b6000611edd84828501611ea4565b91505092915050565b60008115159050919050565b611efb81611ee6565b82525050565b6000602082019050611f166000830184611ef2565b92915050565b6000819050919050565b611f2f81611f1c565b8114611f3a57600080fd5b50565b600081359050611f4c81611f26565b92915050565b600060208284031215611f6857611f67611e57565b5b6000611f7684828501611f3d565b91505092915050565b611f8881611f1c565b82525050565b6000602082019050611fa36000830184611f7f565b92915050565b600081519050919050565b600082825260208201905092915050565b60005b83811015611fe3578082015181840152602081019050611fc8565b83811115611ff2576000848401525b50505050565b6000601f19601f8301169050919050565b600061201482611fa9565b61201e8185611fb4565b935061202e818560208601611fc5565b61203781611ff8565b840191505092915050565b6000602082019050818103600083015261205c8184612009565b905092915050565b600073ffffffffffffffffffffffffffffffffffffffff82169050919050565b600061208f82612064565b9050919050565b61209f81612084565b82525050565b60006020820190506120ba6000830184612096565b92915050565b6120c981612084565b81146120d457600080fd5b50565b6000813590506120e6816120c0565b92915050565b6000806040838503121561210357612102611e57565b5b6000612111858286016120d7565b925050602061212285828601611f3d565b9150509250929050565b6000806040838503121561214357612142611e57565b5b600061215185828601611f3d565b925050602061216285828601611f3d565b9150509250929050565b60008060006060848603121561218557612184611e57565b5b6000612193868287016120d7565b93505060206121a4868287016120d7565b92505060406121b586828701611f3d565b9150509250925092565b6000602082840312156121d5576121d4611e57565b5b60006121e3848285016120d7565b91505092915050565b600080fd5b600080fd5b7f4e487b7100000000000000000000000000000000000000000000000000000000600052604160045260246000fd5b61222e82611ff8565b810181811067ffffffffffffffff8211171561224d5761224c6121f6565b5b80604052505050565b6000612260611e4d565b905061226c8282612225565b919050565b600067ffffffffffffffff82111561228c5761228b6121f6565b5b61229582611ff8565b9050602081019050919050565b82818337600083830152505050565b60006122c46122bf84612271565b612256565b9050828152602081018484840111156122e0576122df6121f1565b5b6122eb8482856122a2565b509392505050565b600082601f830112612308576123076121ec565b5b81356123188482602086016122b1565b91505092915050565b6000806040838503121561233857612337611e57565b5b600083013567ffffffffffffffff81111561235657612355611e5c565b5b612362858286016122f3565b925050602061237385828601611f3d565b9150509250929050565b61238681611ee6565b811461239157600080fd5b50565b6000813590506123a38161237d565b92915050565b600080604083850312156123c0576123bf611e57565b5b60006123ce858286016120d7565b92505060206123df85828601612394565b9150509250929050565b600067ffffffffffffffff821115612404576124036121f6565b5b61240d82611ff8565b9050602081019050919050565b600061242d612428846123e9565b612256565b905082815260208101848484011115612449576124486121f1565b5b6124548482856122a2565b509392505050565b600082601f830112612471576124706121ec565b5b813561248184826020860161241a565b91505092915050565b600080600080608085870312156124a4576124a3611e57565b5b60006124b2878288016120d7565b94505060206124c3878288016120d7565b93505060406124d487828801611f3d565b925050606085013567ffffffffffffffff8111156124f5576124f4611e5c565b5b6125018782880161245c565b91505092959194509250565b6000806040838503121561252457612523611e57565b5b6000612532858286016120d7565b9250506020612543858286016120d7565b9150509250929050565b7f4e487b7100000000000000000000000000000000000000000000000000000000600052602260045260246000fd5b6000600282049050600182168061259457607f821691505b602082108114156125a8576125a761254d565b5b50919050565b7f4552433732313a20617070726f76656420717565727920666f72206e6f6e657860008201527f697374656e7420746f6b656e0000000000000000000000000000000000000000602082015250565b600061260a602c83611fb4565b9150612615826125ae565b604082019050919050565b60006020820190508181036000830152612639816125fd565b9050919050565b7f4552433732313a20617070726f76616c20746f2063757272656e74206f776e6560008201527f7200000000000000000000000000000000000000000000000000000000000000602082015250565b600061269c602183611fb4565b91506126a782612640565b604082019050919050565b600060208201905081810360008301526126cb8161268f565b9050919050565b7f4552433732313a20617070726f76652063616c6c6572206973206e6f74206f7760008201527f6e6572206e6f7220617070726f76656420666f7220616c6c0000000000000000602082015250565b600061272e603883611fb4565b9150612739826126d2565b604082019050919050565b6000602082019050818103600083015261275d81612721565b9050919050565b7f596f752063616e27742065786368616e676520746865205374617220796f752060008201527f646f6e2774206f776e6564000000000000000000000000000000000000000000602082015250565b60006127c0602b83611fb4565b91506127cb82612764565b604082019050919050565b600060208201905081810360008301526127ef816127b3565b9050919050565b7f596f752063616e6e6f742065786368616e67652061205374617220776974682060008201527f796f757273656c662e0000000000000000000000000000000000000000000000602082015250565b6000612852602983611fb4565b915061285d826127f6565b604082019050919050565b6000602082019050818103600083015261288181612845565b9050919050565b7f4552433732313a207472616e736665722063616c6c6572206973206e6f74206f60008201527f776e6572206e6f7220617070726f766564000000000000000000000000000000602082015250565b60006128e4603183611fb4565b91506128ef82612888565b604082019050919050565b60006020820190508181036000830152612913816128d7565b9050919050565b7f54686520537461722073686f756c6420626520757020666f722073616c650000600082015250565b6000612950601e83611fb4565b915061295b8261291a565b602082019050919050565b6000602082019050818103600083015261297f81612943565b9050919050565b7f596f75206e65656420746f206861766520656e6f756768204574686572000000600082015250565b60006129bc601d83611fb4565b91506129c782612986565b602082019050919050565b600060208201905081810360008301526129eb816129af565b9050919050565b7f4e487b7100000000000000000000000000000000000000000000000000000000600052601160045260246000fd5b6000612a2c82611f1c565b9150612a3783611f1c565b925082821015612a4a57612a496129f2565b5b828203905092915050565b7f596f752063616e27742073616c6520746865205374617220796f7520646f6e2760008201527f74206f776e656400000000000000000000000000000000000000000000000000602082015250565b6000612ab1602783611fb4565b9150612abc82612a55565b604082019050919050565b60006020820190508181036000830152612ae081612aa4565b9050919050565b7f4552433732313a206f776e657220717565727920666f72206e6f6e657869737460008201527f656e7420746f6b656e0000000000000000000000000000000000000000000000602082015250565b6000612b43602983611fb4565b9150612b4e82612ae7565b604082019050919050565b60006020820190508181036000830152612b7281612b36565b9050919050565b7f4552433732313a2062616c616e636520717565727920666f7220746865207a6560008201527f726f206164647265737300000000000000000000000000000000000000000000602082015250565b6000612bd5602a83611fb4565b9150612be082612b79565b604082019050919050565b60006020820190508181036000830152612c0481612bc8565b9050919050565b7f4552433732314d657461646174613a2055524920717565727920666f72206e6f60008201527f6e6578697374656e7420746f6b656e0000000000000000000000000000000000602082015250565b6000612c67602f83611fb4565b9150612c7282612c0b565b604082019050919050565b60006020820190508181036000830152612c9681612c5a565b9050919050565b600081905092915050565b6000612cb382611fa9565b612cbd8185612c9d565b9350612ccd818560208601611fc5565b80840191505092915050565b6000612ce58285612ca8565b9150612cf18284612ca8565b91508190509392505050565b7f596f752063616e6e6f74207472616e736665722061205374617220746861742060008201527f796f7520646f6e2774206f776e00000000000000000000000000000000000000602082015250565b6000612d59602d83611fb4565b9150612d6482612cfd565b604082019050919050565b60006020820190508181036000830152612d8881612d4c565b9050919050565b7f4552433732313a206f70657261746f7220717565727920666f72206e6f6e657860008201527f697374656e7420746f6b656e0000000000000000000000000000000000000000602082015250565b6000612deb602c83611fb4565b9150612df682612d8f565b604082019050919050565b60006020820190508181036000830152612e1a81612dde565b9050919050565b7f4552433732313a207472616e73666572206f6620746f6b656e2074686174206960008201527f73206e6f74206f776e0000000000000000000000000000000000000000000000602082015250565b6000612e7d602983611fb4565b9150612e8882612e21565b604082019050919050565b60006020820190508181036000830152612eac81612e70565b9050919050565b7f4552433732313a207472616e7366657220746f20746865207a65726f2061646460008201527f7265737300000000000000000000000000000000000000000000000000000000602082015250565b6000612f0f602483611fb4565b9150612f1a82612eb3565b604082019050919050565b60006020820190508181036000830152612f3e81612f02565b9050919050565b6000612f5082611f1c565b9150612f5b83611f1c565b9250827fffffffffffffffffffffffffffffffffffffffffffffffffffffffffffffffff03821115612f9057612f8f6129f2565b5b828201905092915050565b7f4552433732313a206d696e7420746f20746865207a65726f2061646472657373600082015250565b6000612fd1602083611fb4565b9150612fdc82612f9b565b602082019050919050565b6000602082019050818103600083015261300081612fc4565b9050919050565b7f4552433732313a20746f6b656e20616c7265616479206d696e74656400000000600082015250565b600061303d601c83611fb4565b915061304882613007565b602082019050919050565b6000602082019050818103600083015261306c81613030565b9050919050565b7f4552433732313a20617070726f766520746f2063616c6c657200000000000000600082015250565b60006130a9601983611fb4565b91506130b482613073565b602082019050919050565b600060208201905081810360008301526130d88161309c565b9050919050565b7f4552433732313a207472616e7366657220746f206e6f6e20455243373231526560008201527f63656976657220696d706c656d656e7465720000000000000000000000000000602082015250565b600061313b603283611fb4565b9150613146826130df565b604082019050919050565b6000602082019050818103600083015261316a8161312e565b9050919050565b600061317c82611f1c565b91507fffffffffffffffffffffffffffffffffffffffffffffffffffffffffffffffff8214156131af576131ae6129f2565b5b600182019050919050565b7f4e487b7100000000000000000000000000000000000000000000000000000000600052601260045260246000fd5b60006131f482611f1c565b91506131ff83611f1c565b92508261320f5761320e6131ba565b5b828204905092915050565b600061322582611f1c565b915061323083611f1c565b9250826132405761323f6131ba565b5b828206905092915050565b7f4e487b7100000000000000000000000000000000000000000000000000000000600052603260045260246000fd5b600081519050919050565b600082825260208201905092915050565b60006132a18261327a565b6132ab8185613285565b93506132bb818560208601611fc5565b6132c481611ff8565b840191505092915050565b60006080820190506132e46000830187612096565b6132f16020830186612096565b6132fe6040830185611f7f565b81810360608301526133108184613296565b905095945050505050565b60008151905061332a81611e8d565b92915050565b60006020828403121561334657613345611e57565b5b60006133548482850161331b565b9150509291505056fea26469706673582212207571f6c2b542201fa2a77608ca21c1cb74a4750e8acdd2c08f4fbc1fafe1e97864736f6c634300080b0033",
  "immutableReferences": {},
  "source": "// SPDX-License-Identifier: MIT\n\npragma solidity ^0.8.11;\n\nimport \"openzeppelin-solidity/contracts/token/ERC721/ERC721.sol\";\n\n// StarNotary Contract declaration inheritance the ERC721 openzeppelin implementation\ncontract StarNotary is ERC721 {\n\n    constructor(string memory name_, string memory symbol_) ERC721 (\"Star Club\", \"STA\") {}\n\n    // Star data\n    struct Star {\n        string name;\n    }\n\n    // Implement Task 1 Add a name and symbol properties\n    // name: Is a short name to your token\n    // symbol: Is a short string like 'USD' -> 'American Dollar'\n    \n\n    // mapping the Star with the Owner Address\n    mapping(uint256 => Star) public tokenIdToStarInfo;\n    // mapping the TokenId and price\n    mapping(uint256 => uint256) public starsForSale;\n\n    \n    // Create Star using the Struct\n    function createStar(string memory _name, uint256 _tokenId) public { // Passing the name and tokenId as a parameters\n        Star memory newStar = Star(_name); // Star is an struct so we are creating a new Star\n        tokenIdToStarInfo[_tokenId] = newStar; // Creating in memory the Star -> tokenId mapping\n        _mint(msg.sender, _tokenId); // _mint assign the the star with _tokenId to the sender address (ownership)\n    }\n\n    // Putting an Star for sale (Adding the star tokenid into the mapping starsForSale, first verify that the sender is the owner)\n    function putStarUpForSale(uint256 _tokenId, uint256 _price) public {\n        require(ownerOf(_tokenId) == msg.sender, \"You can't sale the Star you don't owned\");\n        starsForSale[_tokenId] = _price;\n    }\n\n\n    // Function that allows you to convert an address into a payable address\n    function _make_payable(address x) internal pure returns (address payable) {\n        return payable(x);\n    }\n\n    function buyStar(uint256 _tokenId) public  payable {\n        require(starsForSale[_tokenId] > 0, \"The Star should be up for sale\");\n        uint256 starCost = starsForSale[_tokenId];\n        address ownerAddress = ownerOf(_tokenId);\n        require(msg.value > starCost, \"You need to have enough Ether\");\n        transferFrom(ownerAddress, msg.sender, _tokenId); // We can't use _addTokenTo or_removeTokenFrom functions, now we have to use _transferFrom\n        address payable ownerAddressPayable = _make_payable(ownerAddress); // We need to make this conversion to be able to use transfer() function to transfer ethers\n        ownerAddressPayable.transfer(starCost);\n        if(msg.value > starCost) {\n            payable(msg.sender).transfer(msg.value - starCost);\n        }\n    }\n\n    // Implement Task 1 lookUptokenIdToStarInfo\n    function lookUptokenIdToStarInfo (uint _tokenId) public view returns (string memory) {\n        //1. You should return the Star saved in tokenIdToStarInfo mapping\n        return tokenIdToStarInfo[_tokenId].name;\n    }\n\n    // Implement Task 1 Exchange Stars function\n    function exchangeStars(uint256 _tokenId1, uint256 _tokenId2) public {\n        //1. Passing to star tokenId you will need to check if the owner of _tokenId1 or _tokenId2 is the sender\n        //2. You don't have to check for the price of the token (star)\n        //3. Get the owner of the two tokens (ownerOf(_tokenId1), ownerOf(_tokenId1)\n        //4. Use _transferFrom function to exchange the tokens.\n        require(ownerOf(_tokenId1) == msg.sender || ownerOf(_tokenId2) == msg.sender, \n            \"You can't exchange the Star you don't owned\"\n        );\n        address ownerAddress1 = ownerOf(_tokenId1);\n        address ownerAddress2 = ownerOf(_tokenId2);\n        require(ownerAddress1 != ownerAddress2, \"You cannot exchange a Star with yourself.\");\n        transferFrom(ownerAddress1, ownerAddress2, _tokenId1);\n        transferFrom(ownerAddress2, ownerAddress1, _tokenId2);\n    }\n\n    // Implement Task 1 Transfer Stars\n    function transferStar(address _to1, uint256 _tokenId) public {\n        //1. Check if the sender is the ownerOf(_tokenId)\n        //2. Use the transferFrom(from, to, tokenId); function to transfer the Star\n        require(ownerOf(_tokenId) == msg.sender, \"You cannot transfer a Star that you don't own\");\n        transferFrom(msg.sender, _to1, _tokenId);\n    }\n\n}",
  "sourcePath": "/Users/ryan/Desktop/blockchains/starv3/contracts/StarNotary.sol",
  "compiler": {
    "name": "solc",
    "version": "0.8.11+commit.d7f03943.Emscripten.clang"
  },
  "schemaVersion": "3.4.4",
  "updatedAt": "2022-01-24T00:56:04.460Z",
  "networkType": "ethereum",
  "devdoc": {
    "kind": "dev",
    "methods": {
      "approve(address,uint256)": {
        "details": "See {IERC721-approve}."
      },
      "balanceOf(address)": {
        "details": "See {IERC721-balanceOf}."
      },
      "getApproved(uint256)": {
        "details": "See {IERC721-getApproved}."
      },
      "isApprovedForAll(address,address)": {
        "details": "See {IERC721-isApprovedForAll}."
      },
      "name()": {
        "details": "See {IERC721Metadata-name}."
      },
      "ownerOf(uint256)": {
        "details": "See {IERC721-ownerOf}."
      },
      "safeTransferFrom(address,address,uint256)": {
        "details": "See {IERC721-safeTransferFrom}."
      },
      "safeTransferFrom(address,address,uint256,bytes)": {
        "details": "See {IERC721-safeTransferFrom}."
      },
      "setApprovalForAll(address,bool)": {
        "details": "See {IERC721-setApprovalForAll}."
      },
      "supportsInterface(bytes4)": {
        "details": "See {IERC165-supportsInterface}."
      },
      "symbol()": {
        "details": "See {IERC721Metadata-symbol}."
      },
      "tokenURI(uint256)": {
        "details": "See {IERC721Metadata-tokenURI}."
      },
      "transferFrom(address,address,uint256)": {
        "details": "See {IERC721-transferFrom}."
      }
    },
    "version": 1
  },
  "userdoc": {
    "kind": "user",
    "methods": {},
    "version": 1
  }
}